:100000000C942A000C9441050C9441050C94410574
:100010000C9441050C9441050C9441050C94410548
:100020000C9441050C9441050C9441050C94410538
:100030000C9441050C9441050C9441050C94410528
:100040000C9441050C9441050C9441050C94410518
:100050000C94410511241FBECFE5D8E0DEBFCDBF13
:0C0060000E943C000C943400F894FFCF88
:0C006C00467265713A00447574793A00E0
:10007800CF93DF93CDB7DEB7A1970FB6F894DEBF65
:100088000FBECDBF0E94270381E090E00E94E403E9
:1000980088EC0E9443050E942E051FBC1DBC1CBC99
:1000A80080E288BF81E48EBD08B605FEFDCFE6B4C8
:1000B800F7B480E288BF81E08EBD08B605FEFDCFAB
:1000C80006B517B580E288BF81E48EBD08B605FE87
:1000D800FDCF86B597B520E228BF1EBCE016F10615
:1000E8000CF0A8C0081719070CF0A4C08E199F09B6
:1000F8002C01990F6608770860E074E284EF90E0BD
:10010800A30192010E94290449015A012CE630E01A
:1001180040E085E0F901DE015A96742F0E94EC0454
:10012800CE014A960E94CF0465E070E080E090E03E
:100138000E94DE04C4010E944B046AE070E080E083
:1001480090E00E94DE0488E49AE59A8389831C8201
:100158001B82FE01359680E1DF011D928A95E9F741
:10016800CE0101960E94CF0460E070E081E090E04B
:100178000E94DE0422E730E040E085E0F901DE017C
:100188005596742F0E94EC04CE0145960E94CF0428
:1001980065E070E081E090E00E94DE04B8016E192D
:1001A8007F09072E000C880B990B0E94EC026B014B
:1001B8007C01C301B2010E94EC029B01AC01C701A2
:1001C800B6010E94360520E030E048EC52E40E9477
:1001D8003A050E940C05CB010E944B0467E070E0D1
:1001E80081E090E00E94DE0485E289A3CE01819639
:1001F8000E94CF0469E070E081E090E00E94DE0494
:1002080084E59AE398A38F8FCE014F960E94CF047E
:100218006BE070E081E090E00E94DE0460E472E44C
:100228008FE090E0A50194010E948204C9010E9418
:0A0238004B0402C00E943205FFCF04
:10024200452BC9F181309105A9F01CF4892B39F0B5
:10025200089582309105C9F0039711F108952AB3E8
:1002620081E090E002C0880F991F6A95E2F7822B25
:100272008ABB089527B381E090E002C0880F991FDE
:100282006A95E2F7822B87BB089524B381E090E060
:1002920002C0880F991F6A95E2F7822B84BB0895EA
:1002A20021B381E090E002C0880F991F6A95E2F7BE
:1002B200822B81BB089581309105B1F01CF4892B0A
:1002C20039F0089582309105D9F0039729F1089504
:1002D2002AB381E090E002C0880F991F6A95E2F785
:1002E200809582238ABB089527B381E090E002C003
:1002F200880F991F6A95E2F78095822387BB08953C
:1003020024B381E090E002C0880F991F6A95E2F75A
:100312008095822384BB089521B381E090E002C0DE
:10032200880F991F6A95E2F78095822381BB089511
:10033200452BC9F181309105A9F01CF4892B39F0C4
:10034200089582309105C9F0039711F108952BB3F6
:1003520081E090E002C0880F991F6A95E2F7822B34
:100362008BBB089528B381E090E002C0880F991FEB
:100372006A95E2F7822B88BB089525B381E090E06D
:1003820002C0880F991F6A95E2F7822B85BB0895F8
:1003920022B381E090E002C0880F991F6A95E2F7CC
:1003A200822B82BB089581309105B1F01CF4892B18
:1003B20039F0089582309105D9F0039729F1089513
:1003C2002BB381E090E002C0880F991F6A95E2F793
:1003D200809582238BBB089528B381E090E002C010
:1003E200880F991F6A95E2F78095822388BB08954A
:1003F20025B381E090E002C0880F991F6A95E2F769
:100402008095822385BB089522B381E090E002C0EB
:10041200880F991F6A95E2F78095822382BB08951F
:1004220010C00E941A0558F00E94130540F029F4EA
:100432005F3F29F00C94280551110C9422050C946D
:100442003E050E94070468F39923B1F3552391F303
:10045200951B550BBB27AA2762177307840738F031
:100462009F5F5F4F220F331F441FAA1FA9F335D08E
:100472000E2E3AF0E0E832D091505040E695001C42
:10048200CAF72BD0FE2F29D0660F771F881FBB1FFC
:10049200261737074807AB07B0E809F0BB0B802DDA
:1004A200BF01FF2793585F4F3AF09E3F510578F006
:1004B2000C9428050C9422055F3FE4F3983ED4F394
:1004C200869577956795B795F7959F5FC9F7880FDA
:1004D200911D9695879597F90895E1E0660F771F2C
:1004E200881FBB1F621773078407BA0720F0621BBD
:0E04F200730B840BBA0BEE1F88F7E09508958C
:100500000FC00E94130538F00E941A0520F09523B1
:1005100011F00C9428050C943E0511240C9422052E
:100520000E94070470F3959FC1F3950F50E0551F8B
:10053000629FF001729FBB27F00DB11D639FAA2738
:10054000F00DB11DAA1F649F6627B00DA11D661F87
:10055000829F2227B00DA11D621F739FB00DA11DA8
:10056000621F839FA00D611D221F749F3327A00D62
:10057000611D231F849F600D211D822F762F6A2FFE
:1005800011249F5750409AF0F1F088234AF0EE0F63
:10059000FF1FBB1F661F771F881F91505040A9F790
:1005A0009E3F510580F00C9428050C9422055F3F76
:1005B000E4F3983ED4F3869577956795B795F795CC
:1005C000E7959F5FC1F7FE2B880F911D9695879544
:0405D00097F90895FA
:1005D400E89409C097FB3EF49095809570956195D9
:1005E4007F4F8F4F9F4F9923A9F0F92F96E9BB278F
:1005F4009395F695879577956795B795F111F8CF0B
:10060400FAF4BB0F11F460FF1BC06F5F7F4F8F4F75
:100614009F4F16C0882311F096E911C0772321F06B
:100624009EE8872F762F05C0662371F096E8862F03
:1006340070E060E02AF09A95660F771F881FDAF75A
:0A064400880F9695879597F90895A1
:10064E008AB3806F8ABB41E050E061E070E081E0E8
:10065E0090E00E94210141E050E062E070E081E014
:10066E0090E00E94210141E050E060E070E081E006
:10067E0090E00E94210140E050E062E070E081E0F5
:10068E0090E00E94990182E00E94B90388E20E94E4
:10069E00B9038CE00E94B90386E00E94B9030E9460
:1006AE00320583ED90E30197F1F700C00000089545
:1006BE000E940F0488F09F5798F0B92F9927B751D1
:1006CE00B0F0E1F0660F771F881F991F1AF0BA95E8
:1006DE00C9F714C0B13091F00E942105B1E0089520
:1006EE000C942105672F782F8827B85F39F0B93F12
:1006FE00CCF3869577956795B395D9F73EF490959B
:0E070E008095709561957F4F8F4F9F4F089596
:10071C00CF93C82F41E050E061E070E081E090E0C1
:10072C000E9499018BB38F709C2F907F892B8BBB70
:10073C000E94990487E893E10197F1F700C000004B
:10074C008BB3282F2F7030E1C39FC0011124822B53
:10075C008BBB0E94990487E893E10197F1F700C0E5
:06076C000000CF9108958A
:10077200CF93C82F40E050E061E070E081E090E06C
:100782000E9499018BB38F709C2F907F892B8BBB1A
:100792000E94990487E893E10197F1F700C00000F5
:1007A2008BB3282F2F7030E1C39FC0011124822BFD
:1007B2008BBB0E94990487E893E10197F1F700C08F
:0607C2000000CF91089534
:1007C800CF93DF93EC0141E050E063E070E081E01B
:1007D80090E00E94210183B7886483BFC130D105AE
:1007E80041F0C230D10549F0CD2B51F483B783BF16
:1007F80007C083B7806283BF03C083B7806383BFAA
:06080800DF91CF9108957D
:10080E0057FD9058440F551F59F05F3F71F04795B3
:10081E00880F97FB991F61F09F3F79F08795089598
:10082E00121613061406551FF2CF4695F1DF08C0B7
:10083E00161617061806991FF1CF869571056105D4
:04084E00089408956D
:10085200A1E21A2EAA1BBB1BFD010DC0AA1FBB1FC2
:10086200EE1FFF1FA217B307E407F50720F0A21B34
:10087200B30BE40BF50B661F771F881F991F1A94A1
:1008820069F760957095809590959B01AC01BD01CB
:04089200CF010895F5
:10089600CF93DF93CDB7DEB72B970FB6F894DEBFB5
:1008A6000FBECDBF4AE0BE016F5F7F4F0E94F904C5
:1008B600CE0101960E94CF042B960FB6F894DEBFA8
:0A08C6000FBECDBFDF91CF91089562
:1008D000BB27FB015527AA27880F991FAA1FA4171A
:1008E00010F0A41B83955051B9F7A05DAA3308F00E
:1008F000A95DA193009779F7B111B1931192CB0142
:040900000C94BF0490
:10090400052E97FB1EF400940E94040557FD07D0A2
:100914000E94290407FC03D04EF40C94040550955E
:0E0924004095309521953F4F4F4F5F4F0895FE
:1009320041E050E060E070E081E090E00E949901C7
:1009420085E88A95F1F7000040E050E060E070E051
:0A09520081E090E00E9499010895F1
:10095C00092E0394000C11F4882352F0BB0F40F4C1
:10096C00BF2B11F460FF04C06F5F7F4F8F4F9F4F01
:02097C000895DC
:10097E00DC01FC01672F71917723E1F7329704C0F8
:10098E007C916D9370836291AE17BF07C8F3089583
:10099E00CF93DF93EC018881882331F021960E945A
:0E09AE008E0389918111FBCFDF91CF910895C7
:1009BC00892B31F0862F8F70806C0E94B9030895BB
:0C09CC00862F8F7080680E94B903089588
:1009D800992777FD05C005900D920197E1F70895D5
:0A09E80001900D920197E1F70895C8
:1009F200BB274A3031F4992322F4BDE290958195C8
:060A02009F4F0C946904F3
:100A080090958095709561957F4F8F4F9F4F089572
:0E0A18000E945F036894B1110C9422050895AA
:0E0A260000240A9416161706180609060895ED
:0E0A340000240A9412161306140605060895EF
:0E0A4200E894BB2766277727CB0197F9089524
:0C0A500097F99F6780E870E060E008956F
:080A5C0083B7826083BF089597
:080A640081E00E94B90308952E
:080A6C000E9411020C94AE047B
:080A74000E9480020C94AE0404
:060A7C009FEF80EC0895DD
:040A82000C940000D0
:040A86008CBF089584
:00000001FF
